{
  "_format": "hh3-artifact-1",
  "contractName": "MembershipPass",
  "sourceName": "contracts/MembershipPass.sol",
  "abi": [
    {
      "inputs": [],
      "stateMutability": "nonpayable",
      "type": "constructor"
    },
    {
      "anonymous": false,
      "inputs": [
        {
          "indexed": true,
          "internalType": "address",
          "name": "user",
          "type": "address"
        },
        {
          "indexed": true,
          "internalType": "address",
          "name": "operator",
          "type": "address"
        }
      ],
      "name": "MemberAdded",
      "type": "event"
    },
    {
      "anonymous": false,
      "inputs": [
        {
          "indexed": true,
          "internalType": "address",
          "name": "user",
          "type": "address"
        },
        {
          "indexed": true,
          "internalType": "address",
          "name": "operator",
          "type": "address"
        }
      ],
      "name": "MemberRemoved",
      "type": "event"
    },
    {
      "inputs": [
        {
          "internalType": "address[]",
          "name": "users",
          "type": "address[]"
        }
      ],
      "name": "addMember",
      "outputs": [],
      "stateMutability": "nonpayable",
      "type": "function"
    },
    {
      "inputs": [
        {
          "internalType": "address",
          "name": "user",
          "type": "address"
        }
      ],
      "name": "addMember",
      "outputs": [],
      "stateMutability": "nonpayable",
      "type": "function"
    },
    {
      "inputs": [],
      "name": "getMemberCount",
      "outputs": [
        {
          "internalType": "uint256",
          "name": "",
          "type": "uint256"
        }
      ],
      "stateMutability": "view",
      "type": "function"
    },
    {
      "inputs": [],
      "name": "getMembers",
      "outputs": [
        {
          "internalType": "address[]",
          "name": "",
          "type": "address[]"
        }
      ],
      "stateMutability": "view",
      "type": "function"
    },
    {
      "inputs": [
        {
          "internalType": "address",
          "name": "user",
          "type": "address"
        }
      ],
      "name": "isMember",
      "outputs": [
        {
          "internalType": "bool",
          "name": "",
          "type": "bool"
        }
      ],
      "stateMutability": "view",
      "type": "function"
    },
    {
      "inputs": [],
      "name": "owner",
      "outputs": [
        {
          "internalType": "address",
          "name": "",
          "type": "address"
        }
      ],
      "stateMutability": "view",
      "type": "function"
    },
    {
      "inputs": [
        {
          "internalType": "address",
          "name": "user",
          "type": "address"
        }
      ],
      "name": "removeMember",
      "outputs": [],
      "stateMutability": "nonpayable",
      "type": "function"
    }
  ],
  "bytecode": "0x6080604052348015600e575f5ffd5b50335f5f6101000a81548173ffffffffffffffffffffffffffffffffffffffff021916908373ffffffffffffffffffffffffffffffffffffffff1602179055506110f28061005b5f395ff3fe608060405234801561000f575f5ffd5b506004361061007b575f3560e01c8063997072f711610059578063997072f7146100d55780639eab5253146100f3578063a230c52414610111578063ca6d56dc146101415761007b565b80630b1ca49a1461007f5780636e1660811461009b5780638da5cb5b146100b7575b5f5ffd5b61009960048036038101906100949190610b57565b61015d565b005b6100b560048036038101906100b09190610be3565b61056b565b005b6100bf610690565b6040516100cc9190610c3d565b60405180910390f35b6100dd6106b4565b6040516100ea9190610c6e565b60405180910390f35b6100fb6106c0565b6040516101089190610d3e565b60405180910390f35b61012b60048036038101906101269190610b57565b61074b565b6040516101389190610d78565b60405180910390f35b61015b60048036038101906101569190610b57565b61080b565b005b5f5f9054906101000a900473ffffffffffffffffffffffffffffffffffffffff1673ffffffffffffffffffffffffffffffffffffffff163373ffffffffffffffffffffffffffffffffffffffff16146101eb576040517f08c379a00000000000000000000000000000000000000000000000000000000081526004016101e290610e11565b60405180910390fd5b5f73ffffffffffffffffffffffffffffffffffffffff168173ffffffffffffffffffffffffffffffffffffffff1603610259576040517f08c379a000000000000000000000000000000000000000000000000000000000815260040161025090610e79565b60405180910390fd5b60015f8273ffffffffffffffffffffffffffffffffffffffff1673ffffffffffffffffffffffffffffffffffffffff1681526020019081526020015f205f9054906101000a900460ff166102e2576040517f08c379a00000000000000000000000000000000000000000000000000000000081526004016102d990610ee1565b60405180910390fd5b5f60015f8373ffffffffffffffffffffffffffffffffffffffff1673ffffffffffffffffffffffffffffffffffffffff1681526020019081526020015f205f6101000a81548160ff0219169083151502179055505f600160035f8473ffffffffffffffffffffffffffffffffffffffff1673ffffffffffffffffffffffffffffffffffffffff1681526020019081526020015f20546103819190610f2c565b90505f60016002805490506103969190610f2c565b9050808214610488575f600282815481106103b4576103b3610f5f565b5b905f5260205f20015f9054906101000a900473ffffffffffffffffffffffffffffffffffffffff16905080600284815481106103f3576103f2610f5f565b5b905f5260205f20015f6101000a81548173ffffffffffffffffffffffffffffffffffffffff021916908373ffffffffffffffffffffffffffffffffffffffff1602179055506001836104459190610f8c565b60035f8373ffffffffffffffffffffffffffffffffffffffff1673ffffffffffffffffffffffffffffffffffffffff1681526020019081526020015f2081905550505b600280548061049a57610499610fbf565b5b600190038181905f5260205f20015f6101000a81549073ffffffffffffffffffffffffffffffffffffffff0219169055905560035f8473ffffffffffffffffffffffffffffffffffffffff1673ffffffffffffffffffffffffffffffffffffffff1681526020019081526020015f205f90553373ffffffffffffffffffffffffffffffffffffffff168373ffffffffffffffffffffffffffffffffffffffff167faa91016c21c52c58ac64f23f71bbe75becc9ada603e18ee671d09ff15492d1c160405160405180910390a3505050565b5f5f9054906101000a900473ffffffffffffffffffffffffffffffffffffffff1673ffffffffffffffffffffffffffffffffffffffff163373ffffffffffffffffffffffffffffffffffffffff16146105f9576040517f08c379a00000000000000000000000000000000000000000000000000000000081526004016105f090610e11565b60405180910390fd5b5f828290501161063e576040517f08c379a000000000000000000000000000000000000000000000000000000000815260040161063590611036565b60405180910390fd5b5f5f90505b8282905081101561068b5761067e83838381811061066457610663610f5f565b5b90506020020160208101906106799190610b57565b6108a5565b8080600101915050610643565b505050565b5f5f9054906101000a900473ffffffffffffffffffffffffffffffffffffffff1681565b5f600280549050905090565b6060600280548060200260200160405190810160405280929190818152602001828054801561074157602002820191905f5260205f20905b815f9054906101000a900473ffffffffffffffffffffffffffffffffffffffff1673ffffffffffffffffffffffffffffffffffffffff16815260200190600101908083116106f8575b5050505050905090565b5f5f73ffffffffffffffffffffffffffffffffffffffff168273ffffffffffffffffffffffffffffffffffffffff16036107ba576040517f08c379a00000000000000000000000000000000000000000000000000000000081526004016107b190610e79565b60405180910390fd5b60015f8373ffffffffffffffffffffffffffffffffffffffff1673ffffffffffffffffffffffffffffffffffffffff1681526020019081526020015f205f9054906101000a900460ff169050919050565b5f5f9054906101000a900473ffffffffffffffffffffffffffffffffffffffff1673ffffffffffffffffffffffffffffffffffffffff163373ffffffffffffffffffffffffffffffffffffffff1614610899576040517f08c379a000000000000000000000000000000000000000000000000000000000815260040161089090610e11565b60405180910390fd5b6108a2816108a5565b50565b5f73ffffffffffffffffffffffffffffffffffffffff168173ffffffffffffffffffffffffffffffffffffffff1603610913576040517f08c379a000000000000000000000000000000000000000000000000000000000815260040161090a90610e79565b60405180910390fd5b60015f8273ffffffffffffffffffffffffffffffffffffffff1673ffffffffffffffffffffffffffffffffffffffff1681526020019081526020015f205f9054906101000a900460ff161561099d576040517f08c379a00000000000000000000000000000000000000000000000000000000081526004016109949061109e565b60405180910390fd5b6001805f8373ffffffffffffffffffffffffffffffffffffffff1673ffffffffffffffffffffffffffffffffffffffff1681526020019081526020015f205f6101000a81548160ff021916908315150217905550600281908060018154018082558091505060019003905f5260205f20015f9091909190916101000a81548173ffffffffffffffffffffffffffffffffffffffff021916908373ffffffffffffffffffffffffffffffffffffffff16021790555060028054905060035f8373ffffffffffffffffffffffffffffffffffffffff1673ffffffffffffffffffffffffffffffffffffffff1681526020019081526020015f20819055503373ffffffffffffffffffffffffffffffffffffffff168173ffffffffffffffffffffffffffffffffffffffff167f6a2af11b2d73f347f9d5840aea46899e17609730b5cd91bd9c312098038acba660405160405180910390a350565b5f5ffd5b5f5ffd5b5f73ffffffffffffffffffffffffffffffffffffffff82169050919050565b5f610b2682610afd565b9050919050565b610b3681610b1c565b8114610b40575f5ffd5b50565b5f81359050610b5181610b2d565b92915050565b5f60208284031215610b6c57610b6b610af5565b5b5f610b7984828501610b43565b91505092915050565b5f5ffd5b5f5ffd5b5f5ffd5b5f5f83601f840112610ba357610ba2610b82565b5b8235905067ffffffffffffffff811115610bc057610bbf610b86565b5b602083019150836020820283011115610bdc57610bdb610b8a565b5b9250929050565b5f5f60208385031215610bf957610bf8610af5565b5b5f83013567ffffffffffffffff811115610c1657610c15610af9565b5b610c2285828601610b8e565b92509250509250929050565b610c3781610b1c565b82525050565b5f602082019050610c505f830184610c2e565b92915050565b5f819050919050565b610c6881610c56565b82525050565b5f602082019050610c815f830184610c5f565b92915050565b5f81519050919050565b5f82825260208201905092915050565b5f819050602082019050919050565b610cb981610b1c565b82525050565b5f610cca8383610cb0565b60208301905092915050565b5f602082019050919050565b5f610cec82610c87565b610cf68185610c91565b9350610d0183610ca1565b805f5b83811015610d31578151610d188882610cbf565b9750610d2383610cd6565b925050600181019050610d04565b5085935050505092915050565b5f6020820190508181035f830152610d568184610ce2565b905092915050565b5f8115159050919050565b610d7281610d5e565b82525050565b5f602082019050610d8b5f830184610d69565b92915050565b5f82825260208201905092915050565b7f4f6e6c79206f776e65722063616e2063616c6c20746869732066756e6374696f5f8201527f6e00000000000000000000000000000000000000000000000000000000000000602082015250565b5f610dfb602183610d91565b9150610e0682610da1565b604082019050919050565b5f6020820190508181035f830152610e2881610def565b9050919050565b7f496e76616c6964206164647265737300000000000000000000000000000000005f82015250565b5f610e63600f83610d91565b9150610e6e82610e2f565b602082019050919050565b5f6020820190508181035f830152610e9081610e57565b9050919050565b7f4e6f742061206d656d62657200000000000000000000000000000000000000005f82015250565b5f610ecb600c83610d91565b9150610ed682610e97565b602082019050919050565b5f6020820190508181035f830152610ef881610ebf565b9050919050565b7f4e487b71000000000000000000000000000000000000000000000000000000005f52601160045260245ffd5b5f610f3682610c56565b9150610f4183610c56565b9250828203905081811115610f5957610f58610eff565b5b92915050565b7f4e487b71000000000000000000000000000000000000000000000000000000005f52603260045260245ffd5b5f610f9682610c56565b9150610fa183610c56565b9250828201905080821115610fb957610fb8610eff565b5b92915050565b7f4e487b71000000000000000000000000000000000000000000000000000000005f52603160045260245ffd5b7f456d70747920696e7075740000000000000000000000000000000000000000005f82015250565b5f611020600b83610d91565b915061102b82610fec565b602082019050919050565b5f6020820190508181035f83015261104d81611014565b9050919050565b7f416c72656164792061206d656d626572000000000000000000000000000000005f82015250565b5f611088601083610d91565b915061109382611054565b602082019050919050565b5f6020820190508181035f8301526110b58161107c565b905091905056fea2646970667358221220fe5b82f8e727a69f6a1f55771d1f73b8a67aa30566b3517a6f4b2c5ce0aa341664736f6c634300081c0033",
  "linkReferences": {},
  "deployedLinkReferences": {},
  "immutableReferences": {},
  "inputSourceName": "project/contracts/MembershipPass.sol",
  "buildInfoId": "solc-0_8_28-c6771437b9e9519db696dcc7d54dbf61be2176be"
}